:020000040800F2
:10000000C8060020CD01000881040008790400081A
:100010007D04000887020008830F0008000000002C
:10002000000000000000000000000000C5070008FC
:100030008B02000800000000AD0600082D0A000831
:10004000E7010008E7010008E7010008E7010008F0
:10005000E7010008E7010008E7010008E7010008E0
:10006000E7010008E7010008E7010008E7010008D0
:10007000E7010008E7010008E7010008E7010008C0
:10008000E7010008E7010008E7010008E7010008B0
:10009000E7010008E7010008E7010008E7010008A0
:1000A000E7010008E7010008E7010008E701000890
:1000B000E7010008E7010008E7010008E701000880
:1000C000E7010008E7010008E7010008E701000870
:1000D000E7010008B10C0008E7010008E70100088B
:1000E000E7010008E7010008E7010008E701000850
:1000F000E7010008E7010008E7010008E701000840
:10010000E7010008E7010008E7010008E70100082F
:10011000E7010008E7010008E7010008E70100081F
:10012000E7010008E7010008E7010008E70100080F
:1001300000F002F800F03AF80AA090E8000C8244BF
:100140008344AAF10107DA4501D100F02FF8AFF29C
:10015000090EBAE80F0013F0010F18BFFB1A43F0A5
:10016000010318472816000048160000103A24BF63
:1001700078C878C1FAD8520724BF30C830C144BF0C
:1001800004680C607047000000230024002500264E
:10019000103A28BF78C1FBD8520728BF30C148BFEA
:1001A0000B6070471FB51FBD10B510BD00F036F8CD
:1001B0001146FFF7F7FF00F059FF00F054F803B4C1
:1001C000FFF7F2FF03BC00F057F800000948804732
:1001D00009480047FEE7FEE7FEE7FEE7FEE7FEE729
:1001E000FEE7FEE7FEE7FEE704480549054A064B41
:1001F00070470000310A000831010008C8000020E3
:10020000C8060020C8020020C802002070477047BE
:100210007047000000487047640000207546FFF7F3
:10022000F9FFAE4605006946534620F007008546B3
:1002300018B020B5FFF7D8FFBDE820404FF000060A
:100240004FF000074FF000084FF0000B21F00701BE
:10025000AC46ACE8C009ACE8C009ACE8C009ACE801
:10026000C0098D46704710B50446AFF300802046A4
:10027000BDE81040FFF7A3BF01491820ABBEFEE761
:1002800026000200704700BFFEE7704700B5034636
:1002900003E04FF47A7000F005F8181EA3F1010393
:1002A000F7D100BD00EBC001C9004FF0E022516161
:1002B000002191610521116100BF4FF0E021096922
:1002C00001F480310029F8D004214FF0E0221161BF
:1002D00070472DE9F041024600250026002000234A
:1002E0000024002791F803C00CF00F0591F803C01B
:1002F0000CF0100CBCF1000F03D091F802C04CEAD6
:10030000050591F800C0BCF1000F31D01468002041
:100310002BE04FF0010C0CFA00F3B1F800C00CEA2E
:1003200003069E4220D183004FF00F0C0CFA03F716
:10033000BC4305FA03FC4CEA040491F803C0BCF189
:10034000280F06D14FF0010C0CFA00FCC2F814C0C3
:100350000AE091F803C0BCF1480F05D14FF0010C41
:100360000CFA00FCC2F810C0401C0828D1D314605D
:10037000B1F800C0BCF1FF0F34DD546800202EE05E
:1003800000F1080C4FF0010808FA0CF3B1F800C0B6
:100390000CEA03069E4221D183004FF00F0C0CFAA9
:1003A00003F7BC4305FA03FC4CEA040491F803C0CC
:1003B000BCF1280F05D100F1080C08FA0CF8C2F8BE
:1003C000148091F803C0BCF1480F07D100F1080C6C
:1003D0004FF0010808FA0CF8C2F81080401C0828F9
:1003E000CED35460BDE8F081F0B50A460023002466
:1003F0000021002500F00046B6F1004F02D11D4E4D
:10040000F16901E01B4E7168C0F3034583B200F44B
:100410004016B6F5401F08D121F07061154E766880
:1004200026F07066134F7E6012E000F48016B6F579
:10043000801F06D1032606FA05F4A14341F070613E
:1004400006E0460D360103FA06F6B14341F070614D
:1004500022B1460D360103FA06F6314300F000469C
:10046000B6F1004F02D1034EF16101E0014E71601F
:10047000F0BD00000000014000BFFEE700BFFEE746
:100480007047000070B5002100230F22C47804B328
:10049000154C246804F4E064C4F5E064210AC1F159
:1004A0000403CA40447804FA03F1847814402143D9
:1004B00009010E4C0678A155047804F01F050124AB
:1004C000AC4005786D11AD0005F1E025C5F800419F
:1004D00009E0047804F01F050124AC40044D0678BF
:1004E000761145F8264070BD0CED00E000E400E018
:1004F00080E100E000B58BB00121042000F0D8F8C5
:100500000121022000F0D4F80121084600F0D0F8C3
:100510000121042000F0DCF80121082000F0D8F8C7
:100520000121212000F0D4F801210803FFF75CFF2E
:1005300018208DF82B00C120ADF8280003208DF87D
:100540002A000AA93C48FFF7C4FE18208DF82700AE
:100550004002ADF8240003208DF8260009A9374891
:10056000FFF7B7FE18208DF823000820ADF8200013
:1005700003208DF8220008A93148FFF7AAFE314870
:1005800000F092FA304800F08FFA4FF0804000F00F
:100590008BFA0020ADF81A00ADF8160044F61F6083
:1005A000ADF818004720ADF8140000208DF81C00AD
:1005B00005A9244800F02AFB05A9234800F026FBE2
:1005C00005A94FF0804000F021FB01A800F010FBCE
:1005D0006020ADF804000020ADF80C000120ADF85B
:1005E00006000020ADF80A0001A9164800F062FAE2
:1005F00001A9144800F0AAFA01A9134800F05AFA18
:1006000001A9114800F0A2FA01A94FF0804000F0C2
:1006100051FA01A94FF0804000F098FA01210948F1
:1006200000F036FA0121084800F032FA012188076B
:1006300000F02EFA0BB000BD00080140001401408C
:10064000000C0140000800400004004010B50446C2
:100650002146024800F0D6FA10BD00000004004018
:1006600010B504462146024800F0CEFA10BD000045
:100670000004004010B5044621464FF0804000F0D1
:10068000C1FA10BD10B504462146024800F0BAFA7E
:1006900010BD00000008004010B504462146024885
:1006A00000F0B2FA10BD00000008004070470000E2
:1006B00029B1064AD2690243044BDA6104E0034AD5
:1006C000D2698243014BDA6170470000001002409A
:1006D00029B1064A92690243044B9A6104E0034A35
:1006E00092698243014B9A617047000000100240FA
:1006F00030B500210022002400232D4D6D6805F047
:100700000C0121B1042905D0082923D105E0294D88
:10071000056022E0274D05601FE0254D6D6805F45A
:100720007012234D6D6805F48034022505EB92426A
:100730001CB9214D554305600BE01D4D6D6805F456
:1007400000351DB11C4D5543056002E0194D554360
:10075000056002E0174D056000BF00BF144D6D68D5
:1007600005F0F0010909154D6B5C0568DD40456039
:100770000F4D6D6805F4E061090A104D6B5C45682A
:10078000DD4085600A4D6D6805F46051C90A0B4D66
:100790006B5C4568DD40C560054D6D6805F4404102
:1007A000890B074D6B5CC568B5FBF3F5056130BD82
:1007B0000010024000127A0000093D0000000020F5
:1007C00010000020704700000148007870470000CA
:1007D0005800002005480078012804D10020034972
:1007E0000870012070470020FCE70000590000203D
:1007F00010B504462146054800F0BFFB00BF80212C
:10080000024800F0EDFA0028F9D010BD0038014090
:1008100010B5FFF76FFE10BD2DE9F04104460A49FF
:10082000204600F08FFD8046084900F06DFE074627
:10083000074900F025FD064600F046FE85B2284631
:10084000FFF704FFBDE8F081000034430000FA44E4
:100850000000FA432DE9F04104460A49204600F021
:1008600071FD8046084900F04FFE0746074900F039
:1008700007FD064600F028FE85B22846FFF7F0FE89
:10088000BDE8F081000087430000FA440000FA430D
:100890002DE9F04104460A49204600F053FD804608
:1008A000084900F031FE0746074900F0E9FC06461A
:1008B00000F00AFE85B22846FFF7DCFEBDE8F081B5
:1008C000000087430000FA440000FA432DE9F0419C
:1008D00004460A49204600F035FD8046084900F0EC
:1008E00013FE0746074900F0CBFC064600F0ECFD7E
:1008F00085B22846FFF7C6FEBDE8F08100008743B9
:100900000000FA440000FA432DE9F04104460A4988
:10091000204600F017FD8046084900F0F5FD074627
:10092000074900F0ADFC064600F0CEFD85B2284632
:10093000FFF7B2FEBDE8F081000034430000FA4446
:100940000000FA4310B500F001F810BD0CB500200E
:10095000019000903348006840F4803031490860CD
:1009600000BF3048006800F4003000900198401C3F
:100970000190009818B90198B0F5A06FF1D12948FD
:10098000006800F4003010B10120009001E0002068
:1009900000900098012843D12348006840F01000DF
:1009A000214908600846006820F0030008600846F6
:1009B000006840F0020008601A4840681949486021
:1009C0000846406848600846406840F480604860D7
:1009D0000846406820F47C1048600846406840F4AF
:1009E000E81048600846006840F08070086000BF6A
:1009F0000C48006800F000700028F9D009484068F1
:100A000020F00300074948600846406840F00200B3
:100A1000486000BF0348406800F00C000828F9D186
:100A20000CBD000000100240002002407047000092
:100A300010B51348006840F00100114908600846ED
:100A40004068104908400E494860084600680E4951
:100A500008400B4908600846006820F480200860C0
:100A60000846406820F4FE0048604FF41F0088608C
:100A7000FFF768FF4FF000600449086010BD0000F8
:100A8000001002400000FFF8FFFFF6FE08ED00E056
:100A900021B1028842F00102028004E002884FF690
:100AA000FE731A400280704701894FF6F8721140B8
:100AB0000181704770B5002400220023058C4FF699
:100AC000FE7635400584028C8388048B4FF68F7543
:100AD0002C40B51E2C400D882C43751E2A400D89D4
:100AE0002A434D882A43144DA8420BD0134DA842E7
:100AF00008D0134DA84205D0124DA84202D0124D85
:100B0000A84213D14FF6F7752A404D892A434FF674
:100B1000FB752A408D882A434FF6FF652B404FF620
:100B2000FF552B408D892B43CD892B438380048334
:100B3000CD888586028470BD002C014000340140C0
:100B400000400140004401400048014070B50024CD
:100B500000220023058C4FF6EF7635400584028C89
:100B60008388048B48F6FF752C404FF6FF452C40D8
:100B70000D884FF6FF7606EA05252C434FF6DF7504
:100B80002A400D8906EA05152A434D8806EA05150F
:100B90002A43154DA84202D0144DA8421DD14FF64C
:100BA0007F752A404D894FF6FF7606EA05152A43E0
:100BB0004FF6BF752A408D8806EA05152A434FF681
:100BC000FF352B404FF2FF752B408D8906EA8505D6
:100BD0002B43CD8906EA85052B4383800483CD888A
:100BE0000587028470BD0000002C014000340140E4
:100BF0000021018041808180C1800181418181810A
:100C0000C181704781867047018770470022028842
:100C10001D4B98420ED01D4B98420BD0B0F1804F27
:100C200008D01B4B984205D01A4B984202D01A4B61
:100C3000984204D14FF68F731A404B881A43174BD2
:100C4000984207D0164B984204D04FF6FF431A4003
:100C5000CB881A4302808B8883850B8803850A4BD7
:100C600098420BD0094B984208D00E4B984205D0C1
:100C70000D4B984202D00D4B984201D10B7A03865E
:100C80000123838270470000002C014000340140A2
:100C90000004004000080040000C0040001000402C
:100CA0000014004000400140004401400048014061
:100CB00010B540F22551094800F09FF801280CD1E9
:100CC000064800F055F906490870012005490870EA
:100CD00040F22551014800F068F810BD003801408D
:100CE000580000205900002010B586B004460121AC
:100CF0000420FFF7EDFC01218803FFF7E9FC4FF426
:100D00000070ADF8140003208DF8160018208DF83F
:100D1000170005A91E48FFF7DCFA4FF48060ADF814
:100D2000140004208DF8170005A91948FFF7D1FA1F
:100D300001940020ADF80800ADF80A00ADF80C00F1
:100D4000ADF810000C20ADF80E0001A9114800F01C
:100D5000A3F801210F4800F037F840210D4800F0BA
:100D60001BF8012240F225510A4800F070F82520B6
:100D70008DF8000003208DF801008DF8020001209D
:100D80008DF803006846FFF77DFB06B010BD00003C
:100D9000000801400038014001F40072B2F5007F04
:100DA00000D100BFCA430280704710B50022002363
:100DB00040F66A14A14200D100BF0A1201249440F7
:100DC000A3B2DC43048010BD21B1828942F40052F9
:100DD000828104E082894DF6FF731A408281704758
:100DE00002460020B1F5007F00D100BF13880B4000
:100DF0000BB1012000E00020704770B502460024CE
:100E000000230025002040F66A16B14200D100BF41
:100E1000C1F3421501F01F03012606FA03F3012D69
:100E200002D19689334006E0022D02D1168A334062
:100E300001E0968A33400C12012606FA04F4168863
:100E4000344013B10CB1012000E0002070BDF0B5BA
:100E50000346002400260025002040F66A17B94208
:100E600000D100BF1846C1F3421401F01F0601274C
:100E700007FA06F5012C01D10C3004E0022C01D157
:100E8000103000E014301AB107682F43076002E009
:100E90000768AF430760F0BD2DE9F04786B005460F
:100EA0000E460024A24600BFA1460027B08900B12B
:100EB00000BF2F462C8A4CF6FF700440F088044394
:100EC0002C82AC894EF6F3100440B0883189084377
:100ED000718908430443AC81AC8A4FF6FF4004405B
:100EE000B0890443AC8201A8FFF702FC1F48874287
:100EF00002D1DDF810A001E0DDF80CA0A88900F413
:100F0000004040B10AEBCA0000EB0A10316849000A
:100F1000B0FBF1F807E00AEBCA0000EB0A103168F9
:100F20008900B0FBF1F86420B8FBF0F0040120095F
:100F3000642101FB1089A88900F4004040B13220EF
:100F400000EBC900B0FBF1F000F00700044308E03B
:100F5000322000EB09106421B0FBF1F000F00F002B
:100F600004432C8106B0BDE8F08700000038014042
:100F700001468888C0F308007047C1F308028280E8
:100F8000704700BFFEE7000010B506480068FFF795
:100F90009DFC04480068FFF7B7FC4FF47A70FFF738
:100FA00075F910BD4400002010B508480068FFF72F
:100FB0006FFC4FF4FA70FFF769F905480068FFF716
:100FC000A3FC4FF47A70FFF761F910BD34000020E4
:100FD0003800002010B508480068FFF759FC4FF4AE
:100FE000FA70FFF753F905480068FFF76FFC4FF4FC
:100FF0007A70FFF74BF910BD34000020300000205C
:1010000010B50C480068FFF725FC4FF4FA70FFF7A5
:101010003DF909480068FFF7FFFB4FF4FA70FFF74E
:1010200035F906480068FFF733FC4FF4FA70FFF714
:101030002DF910BD14000020180000201C00002015
:1010400010B508480068FFF7E7FB4FF4FA70FFF7A8
:101050001DF905480068FFF71BFC4FF4FA70FFF715
:1010600015F910BD3400002030000020FFF7D0FB40
:101070004FF41650FFF738FEA8E0FFF7ABFB01284E
:101080007ED1FFF7A1FB5249087008460078FFF7B0
:10109000AFFB4F48007873280DD1FFF775FF4FF471
:1010A0007A70FFF7F3F800F095F84FF4FA70FFF755
:1010B000EDF8FFF7A5FF464800784C281ED100F058
:1010C0009FF81420FFF7E2F8FFF7BAFF4FF4FA7029
:1010D000FFF7DCF8FFF768FF4FF47A70FFF7D6F8F8
:1010E000FFF752FF4FF4FA70FFF7D0F800F072F8F4
:1010F0004FF47A70FFF7CAF8FFF782FF34480078A0
:1011000052281AD100F09CF81420FFF7BFF8FFF71F
:1011100097FF4FF4FA70FFF7B9F8FFF75BFF4FF452
:101120007A70FFF7B3F8FFF72FFF00F053F84FF492
:101130007A70FFF7ABF8FFF763FF254800786C285B
:101140001AD100F05DF81420FFF7A0F8FFF778FF40
:101150004FF4FA70FFF79AF8FFF73CFF4FF47A70FC
:10116000FFF794F8FFF710FF00F034F84FF47A70AF
:10117000FFF78CF8FFF744FF15480078722800E06D
:1011800021E01AD100F05CF81420FFF77FF8FFF798
:1011900057FF4FF4FA70FFF779F8FFF705FF4FF4A8
:1011A0007A70FFF773F8FFF7EFFE00F013F84FF4D3
:1011B0007A70FFF76BF8FFF723FF05480078742873
:1011C00001D100F007F81420FFF760F855E70000A0
:1011D0006000002010B508480068FFF759FB4FF485
:1011E0007A70FFF753F805480068FFF715FB4FF4D6
:1011F0007A70FFF74BF810BD30000020500000203F
:1012000010B50C480068FFF707FB4FF4FA70FFF7C2
:101210003DF809480068FFF73BFB4FF4FA70FFF711
:1012200035F806480068FFF715FB4FF4FA70FFF732
:101230002DF810BD2C0000203C00002020000020D4
:1012400010B50C480068FFF7E7FA4FF4FA70FFF7A3
:101250001DF809480068FFF71BFB4FF4FA70FFF711
:1012600015F806480068FFF7F5FA4FF4FA70FFF733
:101270000DF810BD2C0000204C00002024000020A0
:1012800090EA010F48BF81F0004100F11082421A3C
:101290003CBF801A89184FEAD0524FF07F4C1CEAAD
:1012A000410FA2EBD15318BF9CEA026F00F03B80C4
:1012B0004FF0004C4CEA00204CEA012121FA03FCDB
:1012C00010EB0C0C1ED202F1FF325FEA1C2040EB47
:1012D000C25038BF70471CF07F0F4FEA400C18BF58
:1012E000BCF17F4F38BF7047C3F12003994008BF5E
:1012F00020F00100BCF17F4F38BF7047A0F1C04023
:1013000000F0C9B94FEA3C00000A40EBC25028BFC8
:101310001CF0FF0F4FEA400CE6D018BFBCF17F4F26
:1013200038BF7047EAE79CEA026F05D010EA5C0F0D
:1013300008BF00F00040704710B500F066F900BF2C
:1013400064FBBE3E4FF47F0C1CEAD0121EBF1CEAA9
:10135000D11392EA0C0F93EA0C0F00F0858090EA0B
:10136000010F48BF42F4807240F4000C41F40000C9
:101370002CF07F4120F07F4000B58142A2EB0302B8
:101380000FF2081CACEB504EC0F100009EF800E0DC
:101390004FEA4E0E00FB0EFC38BF49004FEA2C1CF2
:1013A00002F5FA020CFB0EF34FEACE1E4FEA112CA7
:1013B0004FEAC1210EEB635E42EB22420EFB0CFCB6
:1013C0004FEA1C5300FB03114FEA112C4FEA013185
:1013D0000EFB0CFC4FEADC4C00FB0C11C14228BF99
:1013E00009184CEB03335DF804EB10EB410143EBC0
:1013F000C250B2F57C0F38BF704729D512F0F00FFC
:101400001CBF00F1C04000F00040704700818283A3
:101410008485868788898B8C8D8E8F919293959603
:1014200097999A9C9D9FA0A2A3A5A7A8AAACAEB08D
:10143000B2B3B5B7B9BCBEC0C2C5C7C9CCCED1D492
:10144000D7D9DCDFE2E6E9ECF0F3F7FAFE000000C2
:101450004FEA400C0CF1807CBCF17E4F28BF7047F6
:10146000B0F1C04000F017B990EA010F0CEAD113B7
:1014700048BF42F48072624538BF634507D213F417
:101480007F0F16D080EA010000F00040704710B5D1
:1014900000F0BBF8097EFC3E00F005B880EA0100D0
:1014A00000F00040704780EA010000F0004000F0CA
:1014B000F2B812F47F0F04BF0248704780EA0100BF
:1014C00000F0E9B80000C07FC10DD1F19E0206DB3B
:1014D0004FEA002343F0004323FA02F07047004232
:1014E00007D54FEA4001B1F1FE4F02D24FF00000A4
:1014F000704710B500F089F84992248000207047A9
:101500006FEA2000704700004FF47F0C1CEAD012F5
:101510001EBF1CEAD11392EA0C0F93EA0C0F00F0E5
:10152000478090EA010F48BF42F480724FF0004CB0
:101530004CEA00204CEA012102EB0302A0FB01135C
:10154000A2F50002002918BF43F001035B0028BF89
:101550004FEA330342EB22425FEA132C4CEBC250BA
:101560002EBFBCEB436FB2F57C0F70474FEA036CA4
:10157000BCF1004F08BF20F00100B2F57C0F38BF6E
:1015800070470BD582F0FF0212F5803FC8BF70474D
:1015900000F1C040D8BF00F00040704700F5000CDB
:1015A0005FEA4C0C48BF7047B0F1C04000F073B820
:1015B00090EA010F0CEAD11348BF42F480726245F1
:1015C00038BF634504D280EA010000F00040704754
:1015D00010B500F01AF800BF8900013E00F007B80E
:1015E00000F009B85FEA410C5FEA1C6C08D080EAA1
:1015F000010000F050B85FEA400C5FEA1C6CF6D1C5
:101600004FF00040A0F5800070470EF1020E2EF062
:10161000030E5EF8044B244204D44FEA4102B2F1B7
:101620007F4F11D84FEA4003B3F17F4F0CD80ED152
:101630004FEAD07CB2F17F4F0CEB4C0C0CF1020C5A
:1016400008BF4CEBD17C04E04FF0080C01E04FEAFE
:10165000D17C0CEB4C0324FA03F404F00704B4F13E
:10166000040C06D20EEB840CBDE810404CF0010CCB
:101670006047DFE80CF0070802024FF00040A0F5D9
:10168000800010BD0846420018BFD2F1807288BFAA
:1016900000F0004010BDFF2141EAD050C005704766
:1016A00090EA010F48BF81F000413FF5F0AD421ACA
:1016B00004D882F00042A0EB020011444FEAD0525D
:1016C0004FF07F4C1CEA410FA2EBD15318BF9CEAAC
:1016D000026F4AD04FF0004C4CEA00204CEA012146
:1016E00021FA03FCB0EB0C0C0FD412F0FE0F36D035
:1016F0005FEA4C001DD5001240EBC25038BF704766
:101700001CF03F0F18BF70470BE0A2F101025FEA27
:101710001C2040EBC25038BF70471CF07F0F18BF31
:101720007047C3F12003994014BF401E20F0010010
:10173000704780084FEA122308BF7047B0FA80FC58
:10174000A2EB0C02CCF1280C60FA0CF093EA122FF9
:1017500004BF00EBC25070474FEAC3707047130AD2
:101760005FEADC1008BF7047F6E79CEA026F04D01E
:1017700010EA5C0F08BF0020704710B5FFF745FF67
:1017800040DFF63E81F0004070470000AC170008D3
:1017900000000020640000006C0100081018000820
:1017A00064000020640600008801000800000000BA
:1017B00001020304010203040607080902040608E3
:1017C00000000E43000068420000C842000064436D
:1017D0000000404200000A43000002430000704243
:1017E0000000A041000034420000A0420000074376
:1017F00000000000000034430000B4420000F0424A
:101800000000614300000000000000000000000034
:0400000508000131BD
:00000001FF
